:100000000C945E000C9486000C9486000C94860080
:100010000C9486000C9486000C9486000C94B50415
:100020000C9486000C9486000C9486000C94860038
:100030000C9486000C9486000C9486000C94860028
:100040000C946B040C9486000C945D050C9437059D
:100050000C9486000C9486000C9486000C94860008
:100060000C9486000C948600000000080002010039
:100070000003040700000000000000000200000070
:1000800000250028002B0000000000240027002A83
:100090000004040404040404040202020202020331
:1000A000030303030301020408102040800102043B
:1000B00008102001020408102000FA0611241FBEB7
:1000C000CFEFD8E0DEBFCDBF11E0A0E0B1E0E0EEC1
:1000D000FEE002C005900D92A631B107D9F721E0EC
:1000E000A6E1B1E001C01D92AE3CB207E1F710E01D
:1000F000CEE5D0E004C02197FE010E946807CD350F
:10010000D107C9F70E948F050C946E070C9400006C
:1001100090E0FC01EB55FF4F24918F569F4FFC015F
:100120008491882399F090E0880F991FFC01E9578A
:10013000FF4FA591B491FC01E358FF4F8591949135
:100140008FB7F894EC91E22BEC938FBF08958F92C8
:100150009F92AF92BF92CF92DF92EF92FF92CF9396
:100160006C0180910001873069F08F3F09F498C0DD
:10017000CF91FF90EF90DF90CF90BF90AF909F9086
:100180008F900895ECE7F0E0C491C7FDF1CF87E0D0
:100190000E9488004601B12CA12CCC23D9F0F12C6F
:1001A000E12CC23009F0EAC04601570160E970ED68
:1001B00083E090E0A70196010E9449072150310990
:1001C0004109510983E02F3F31054105510509F0EF
:1001D0000CF457C060E072E18AE790E0A501940159
:1001E0000E94490769017A0168E478EE81E090E0B5
:1001F000A50194010E944907215031094109510983
:10020000CC2309F41BC1C23009F048C184E02F3F60
:10021000310541055105A9F1A4F164E274EF80E0D4
:1002200090E0A50194010E9449072150310941093C
:10023000510985E02F3F31054105510511F108F1C4
:1002400062E17AE780E090E0A50194010E9449070D
:10025000215031094109510986E02F3F31054105FF
:10026000510579F074F08AE0F594E794D794C79437
:100270008A95D1F7A7019601215031094109510909
:1002800087E09091B100987F892B8093B100C130B5
:1002900009F49DC0C23009F4AFC0C11169CFECC0F0
:1002A00087E080930001ECE7F0E0C491CF3F09F4D0
:1002B0005FCFC13019F148F0C23009F43DC0C7FD2D
:1002C00057CF87E00E9488006ACF14BC15BC84B564
:1002D000826084BD85B5816085BDE8E9F0E0E49188
:1002E000F0E0EE0FFF1FE358FF4F85919491ECEA89
:1002F000F0E0E491E0932401C0E049CF1092800047
:1003000010928100809181008860809381008091AB
:100310008100816080938100E8E9F0E0E491F0E001
:10032000EE0FFF1FE358FF4F85919491ECEAF0E048
:10033000E491E09323012BCF1092B0001092B10012
:100340008091B00082608093B0008091B1008160A4
:100350008093B100E8E9F0E0E491F0E0EE0FFF1FD8
:10036000E358FF4F8591949190932201809321014E
:10037000ECEAF0E0E491E093200109CF60E072E163
:100380008AE790E0A70196010E94490721503109B0
:100390004109510991E02115310581E048075105D6
:1003A0006CF068E478EE81E090E0A70196010E948D
:1003B0004907215031094109510993E0C13009F041
:1003C00066CF80918100887F892B80938100309354
:1003D0008900209388008FEF9FEFDC018093290133
:1003E00090932A01A0932B01B0932C0180916F0070
:1003F000826080936F00BCCE2093B3008FEF9FEF9D
:10040000DC018093250190932601A0932701B093EE
:10041000280180917000826080937000A9CE9AE0DC
:10042000F594E794D794C7949A95D1F7A7019601CC
:10043000215031094109510995E01AC093E02F3F3D
:10044000310541055105A1F09CF062E17AE780E0B9
:1004500090E0A50194010E9449072150310941090A
:1004600051092F3F31054105510509F0C4F694E0CB
:1004700085B5887F892B85BD27BD8FEF9FEFDC0178
:1004800080932D0190932E01A0932F01B093300102
:1004900080916E00826080936E006ACE84E0CACE46
:1004A00090E0FC01E859FF4F2491FC01EB55FF4F10
:1004B0003491FC01EF56FF4FE491EE23C9F0222363
:1004C00039F0233001F1A8F4213019F1223029F15B
:1004D000F0E0EE0FFF1FE358FF4FA591B4918FB7E7
:1004E000F894EC91611126C030953E233C938FBF68
:1004F00008952730A9F02830C9F0243049F78091B9
:1005000080008F7D03C0809180008F778093800072
:10051000DFCF84B58F7784BDDBCF84B58F7DFBCFF4
:100520008091B0008F778093B000D2CF8091B000DF
:100530008F7DF9CF3E2BDACF3FB7F89480911C0125
:1005400090911D01A0911E01B0911F0126B5A89B9D
:1005500005C02F3F19F00196A11DB11D3FBFBA2F55
:10056000A92F982F8827BC01CD01620F711D811D15
:10057000911D42E0660F771F881F991F4A95D1F79A
:1005800008958F929F92AF92BF92CF92DF92EF9297
:10059000FF920E949C024B015C0188EEC82E83E012
:1005A000D82EE12CF12C0E949C02681979098A0945
:1005B0009B09683E734081059105A8F321E0C21AAA
:1005C000D108E108F10888EE880E83E0981EA11C8E
:1005D000B11CC114D104E104F10429F7FF90EF909C
:1005E000DF90CF90BF90AF909F908F900895AF9283
:1005F000BF92CF92DF92EF92FF920F931F93CF9310
:10060000DF936C017B018B01040F151FEB015E0171
:10061000AE18BF08C017D10759F06991D601ED9106
:10062000FC910190F081E02DC6010995892B79F7A5
:10063000C501DF91CF911F910F91FF90EF90DF9057
:10064000CF90BF90AF900895FC01538D448D252F1E
:1006500030E0842F90E0821B930B541710F0CF965C
:10066000089501970895FC01918D828D981761F08E
:10067000A28DAE0FBF2FB11D5D968C91928D9F5FA5
:100680009F73928F90E008958FEF9FEF0895FC0184
:10069000918D828D981731F0828DE80FF11D858D37
:1006A00090E008958FEF9FEF0895FC01918D228DCA
:1006B000892F90E0805C9F4F821B91098F7399274F
:1006C000089581E391E00E94550321E0892B09F40C
:1006D00020E0822F089580E090E0892B29F00E948D
:1006E000610381110C9400000895FC01A48DA80FF2
:1006F000B92FB11DA35ABF4F2C91848D90E0019664
:100700008F739927848FA689B7892C93A089B18983
:100710008C91837080648C93938D848D981306C024
:100720000288F389E02D80818F7D80830895EF9288
:10073000FF920F931F93CF93DF93EC0181E0888F9B
:100740009B8D8C8D98131AC0E889F989808185FF6B
:1007500015C09FB7F894EE89FF896083E889F9890D
:1007600080818370806480839FBF81E090E0DF910F
:10077000CF911F910F91FF90EF900895F62E0B8D62
:1007800010E00F5F1F4F0F731127E02E8C8D8E111D
:100790000CC00FB607FCFACFE889F989808185FF84
:1007A000F5CFCE010E947503F1CFEB8DEC0FFD2F3D
:1007B000F11DE35AFF4FF0829FB7F8940B8FEA893F
:1007C000FB8980818062CFCFCF93DF93EC01888D4E
:1007D0008823B9F0AA89BB89E889F9898C9185FDBC
:1007E00003C0808186FD0DC00FB607FCF7CF8C914A
:1007F00085FFF2CF808185FFEDCFCE010E9475038A
:10080000E9CFDF91CF910895CF93C82F60E08AE0C0
:100810000E94500281E18EBD00000DB407FEFDCFA5
:100820008EB5CEBD00000DB407FEFDCF8EB561E0E4
:100830008AE00E945002CF9108958F929F92AF92CA
:10084000BF920F931F93CF93DF93CDB7DEB7A197DE
:100850000FB6F894DEBF0FBECDBF19A2423008F428
:100860004AE08E010F5D1F4F842E912CB12CA12CDC
:10087000A50194010E942707E62FB901CA01EA30B9
:1008800044F5E05DD801EE938D01232B242B252B1D
:1008900079F790E080E0109769F0FD010190002069
:1008A000E9F73197AF014A1B5B0BBD0181E391E092
:1008B0000E94F702A1960FB6F894DEBF0FBECDBF1F
:1008C000DF91CF911F910F91BF90AF909F908F902C
:1008D0000895E95CD7CF1F920F920FB60F921124A3
:1008E0002F933F938F939F93AF93BF938091180162
:1008F00090911901A0911A01B0911B01309117013B
:1009000023E0230F2D3758F50196A11DB11D20932B
:1009100017018093180190931901A0931A01B093C5
:100920001B0180911C0190911D01A0911E01B091AD
:100930001F010196A11DB11D80931C0190931D0103
:10094000A0931E01B0931F01BF91AF919F918F9112
:100950003F912F910F900FBE0F901F90189526E892
:10096000230F0296A11DB11DD2CF1F920F920FB679
:100970000F9211242F933F934F935F936F937F9325
:100980008F939F93AF93BF93EF93FF938091250134
:1009900090912601A0912701B0912801892B8A2BE3
:1009A0008B2BD1F190912001E0912101F091220156
:1009B0008081892780838091250190912601A091D3
:1009C0002701B0912801181619061A061B069CF477
:1009D0008091250190912601A0912701B0912801D5
:1009E0000197A109B1098093250190932601A09355
:1009F0002701B0932801FF91EF91BF91AF919F9193
:100A00008F917F916F915F914F913F912F910F90B7
:100A10000FBE0F901F90189580910001ECE7F0E059
:100A2000E4919FEF90930001E13051F030F0E2301B
:100A300069F060E00E945002DECF10926E00F9CFA4
:100A400090916F009D7F90936F00F3CF9091700015
:100A50009D7F9093700091E09093B0009091B100D1
:100A6000987F94609093B1001092B300E2CF1F92F0
:100A70000F920FB60F9211242F933F934F935F93D2
:100A80006F937F938F939F93AF93BF93EF93FF9356
:100A900081E391E00E947503FF91EF91BF91AF91C7
:100AA0009F918F917F916F915F914F913F912F9186
:100AB0000F900FBE0F901F9018951F920F920FB6B8
:100AC0000F9211242F938F939F93EF93FF93E091B5
:100AD0004101F09142018081E0914701F09148018C
:100AE00082FD1BC0908180914A018F5F8F7320919E
:100AF0004B01821741F0E0914A01F0E0EF5CFE4FBC
:100B0000958F80934A01FF91EF919F918F912F9143
:100B10000F900FBE0F901F9018958081F4CF78949E
:100B200084B5826084BD84B5816084BD85B58260F2
:100B300085BD85B5816085BD80916E0081608093A3
:100B40006E0010928100809181008260809381000C
:100B5000809181008160809381008091800081601C
:100B6000809380008091B10084608093B100809177
:100B7000B00081608093B00080917A00846080939F
:100B80007A0080917A00826080937A0080917A0066
:100B9000816080937A0080917A00806880937A00E7
:100BA0001092C10087E00E948800E0914101F0911D
:100BB000420182E08083E0913D01F0913E0110828C
:100BC000E0913F01F09140018FEC80831092490148
:100BD000E0914501F091460186E08083E091430178
:100BE000F0914401808180618083E0914301F09124
:100BF0004401808188608083E0914301F091440149
:100C0000808180688083E0914301F091440180817C
:100C10008F7D80838AE00E948800CFB7F89480910E
:100C20001601811124C0EBE9F0E08491EFEAF0E0D5
:100C30009491E82FF0E0EE0FFF1FE957FF4FA591C9
:100C4000B491EC91E92321F461E08AE00E94500222
:100C50008AE00E9488008CB580618CBD8CB5806470
:100C60008CBD8DE00E9488008BE00E9488008091FE
:100C700016018F5F80931601CFBF90E080E00E9445
:100C800004040E94C10280E890E00E9404040E94D3
:100C9000C1028FEF90E00E9404040E94C10210E4A0
:100CA000C0E0D0E010937C0080917A008064809353
:100CB0007A0080917A0086FDFCCFC0907800D090B9
:100CC0007900C6010B978A35910590F584E690E08E
:100CD0000E94A7008AE090E00E9404040D2C000C02
:100CE000EE08FF084AE0C701B601F7FE0DC06DE24D
:100CF00081E391E00E94970366277727CB016C1967
:100D00007D098E099F094AE00E941D0442E050E0DF
:100D100063E171E081E391E00E94F702209711F214
:100D20000E946103882309F4BDCF0E940000BACF5E
:100D3000C601855691098436910538F488EC90E017
:100D40000E94A70085E090E0C7CFC601895C9109A9
:100D50008436910538F48CE291E00E94A70083E08C
:100D600090E0BACFC6018D5291408436910518F4B7
:100D700080E991E0F2CFC601815991408436910516
:100D800018F484EF91E0E9CFC601855F9140843685
:100D9000910538F488E592E00E94A70082E090E097
:100DA0009BCFC601895592408436910518F48CEB8F
:100DB00092E0F2CFC6018D5B92408436910518F423
:100DC00080E293E0E9CFC6018152934084369105D9
:100DD00038F484E893E00E94A70081E090E07CCFA3
:100DE000C601855893408436910508F077CF88EE88
:100DF00093E0F1CFE1E3F1E01382128288EE93E019
:100E0000A0E0B0E084839583A683B78385E091E07A
:100E10009183808385EC90E09587848784EC90E0D3
:100E20009787868780EC90E0918B808B81EC90E0B7
:100E3000938B828B82EC90E0958B848B86EC90E098
:100E4000978B868B118E128E138E148E0895A1E2CD
:100E50001A2EAA1BBB1BFD010DC0AA1FBB1FEE1F34
:100E6000FF1FA217B307E407F50720F0A21BB30B7F
:100E7000E40BF50B661F771F881F991F1A9469F7FB
:100E800060957095809590959B01AC01BD01CF0157
:100E90000895052E97FB1EF400940E94600757FDED
:100EA00007D00E94270707FC03D04EF40C9460077C
:100EB00050954095309521953F4F4F4F5F4F089586
:100EC00090958095709561957F4F8F4F9F4F0895B6
:100ED000EE0FFF1F0590F491E02D0994F894FFCFD9
:100EE000FF000000009703F7022403E403550333D7
:060EF0000347030D0A0098
:00000001FF
